:020000040800F2
:100000004821002029580008790700087B070008CC
:100010007F0700088307000887070008000000002A
:100020000000000000000000000000008B07000836
:100030008D07000800000000B7580008CD550008E3
:100040004358000843580008435800084358000824
:10005000435800084358000843580008E3040008C8
:100060004358000843580008435800084358000804
:1000700043580008435800084358000843580008F4
:1000800043580008435800084358000843580008E4
:1000900043580008435800084358000843580008D4
:1000A000435800084358000843580008D506000884
:1000B000AF0600084358000843580008435800089A
:1000C00043580008435800084358000843580008A4
:1000D0004358000895570008435800084358000843
:1000E0004D050008435800084358000800F002F886
:1000F00000F042F80AA090E8000C82448344AAF180
:100100000107DA4501D100F037F8AFF2090EBAE87D
:100110000F0013F0010F18BFFB1A43F0010318473B
:10012000B0E00000D0E00000103A24BF78C878C1E9
:10013000FAD8520724BF30C830C144BF04680C60ED
:10014000704700000023002400250026103A28BF35
:1001500078C1FBD8520728BF30C148BF0B60704739
:10016000642909F06385782909F09C85002070478F
:100170001FB51FBD10B510BD0AF00EF81146FFF7F0
:10018000F7FF00F06CF90AF02CF803B4FFF7F2FF68
:1001900003BC05F0A5FA000086B07AE003AA04A922
:1001A00005A803F04CFF002873D0FE4904980BF01B
:1001B0006BFB05460BF0CCFA0446002C25DA6442B2
:1001C00000201021F8A24FF6FF73CDE90021029024
:1001D0001F22282101F09BFA0A2094FBF0F5102041
:1001E00002232A4628210090382001F0ABF80A208B
:1001F00094FBF0F100FB1145102002232A46282130
:100200000090502001F09EF823E000201021EAA287
:100210004FF6FF73CDE9002102901F22282101F043
:1002200076FA0A2094FBF0F5102002232A462821B2
:100230000090302001F086F80A2094FBF0F100FBDA
:100240001145102002232A4628210090482001F061
:1002500079F82D2C10DD0821DB4809F047FA002041
:100260001021DAA24FF6FF73CDE9002102901F2280
:10027000142101F04CFA08E04FF6FF70232380228E
:1002800000210090084600F021FD4FF4967005F023
:10029000FAF983E706E0D04801F085FE4FF47A7062
:1002A00005F0F1F9F7E71FB547E003AA0021CB48B5
:1002B000006806F068FFCA48007800F08000002857
:1002C0003BD0C84800880AF0C5FD06464FF03332DF
:1002D000C54B0AF0D3FD04460AF078FDC349086017
:1002E00000201021C2A24FF6FF73CDE90021029039
:1002F0001F223C2101F00BFA102002230090BB4882
:100300003C210268282001F01DF8B8480068052843
:100310000AD8BA4801F0E1FDB94800F084FB082191
:10032000A94809F0E3F905E0B54800F021FBB3481E
:1003300001F078FD0020AA490870B6E71FB525E056
:1003400003AA0021AF48006806F01DFFAE48006810
:10035000AE49086000201021ADA24FF6FF73CDE931
:10036000002102901F22502101F0D1F910200090AD
:10037000A6480068C0EB001080004208022350210C
:10038000302000F0DFFF00209F490860D8E708B563
:100390000AE06A460021A248006806F0F4FEA1487F
:1003A0000178894809F0A2F9F3E708B50AE06A463E
:1003B00000219D48006806F0E6FE9C4801788248CE
:1003C00009F094F9F3E770B50446002500BF00205A
:1003D00006F053FE94490860002006F04EFE904956
:1003E0000860002006F049FE86490860002006F0FB
:1003F00044FE7A49086005F037FA054607238C4A1F
:100400000021AFF2590007F083F80623894A002142
:10041000AFF2850007F07CF80423874A0021AFF291
:10042000E30007F075F80523844A0021AFF2891034
:1004300007F06EF80923824A0021AFF2A71007F0F7
:1004400067F808237F4A0021AFF2B32007F060F875
:100450000A2007F0DDFA284605F00AFA70BD10B54B
:1004600005F0C0F84FF4A06007F072FC04F03FFE06
:1004700003F098FD4FF400527349614800F092FA7E
:100480004FF4004271495D4801F0E6FC4FF48052A0
:100490006F49514801F046FD43F63F01632000F0EB
:1004A00005FB43F63F0141F2873000F0D1FA41F6F7
:1004B0003F11542000F037FB00F08EFB01F018FBD9
:1004C0004FF4E13005F01AF905F0A9FB0A23614A5F
:1004D0000021AFF20D1007F01BF805F0C5FC00205D
:1004E00010BD0EB505F0B1FB0A2005F0CCF80221D5
:1004F000564807F01CFE18BB4C480078401E4B497C
:10050000087008460078032801DA082008700020E7
:10051000102151A24FF6FF73CDE9002102901F2256
:10052000642101F0F4F81020022300903F48027883
:100530006421282000F006FF3B48006806F0D2FE48
:10054000022007F0F8FC05F09BFB0EBD0EB505F090
:100550007CFB0A2005F097F84FF4805007F0DAFC96
:10056000F0B14FF48051394807F0E1FDC8B92D488A
:100570000078401C2B490870084600780D2801DDE2
:10058000082008700020102133A24FF6FF73CDE938
:10059000002102901F22782101F0B9F810205FE0BD
:1005A0006EE069E000002041616E676C653A2D30B5
:1005B000302E303064000000616E676C653A303078
:1005C0002E30306400000000000400404375617468
:1005D000696F6E2100000000200000200C00002048
:1005E00034000020360000203333FB3F3800002069
:1005F0006A756C693A3030636D00000018000020A5
:1006000010000020080000202C00002030000020F6
:1006100053706565643A3030722F6D696E0000006A
:1006200004000020290000200000002028000020F5
:10063000F4020020F4030020F4040020F40600205B
:1006400074070020740F002000100140000C0140CE
:1006500000080140F4010020476561723A00000083
:10066000022300903B4802787821282000F06AFE9F
:100670003948006806F036FE4FF4805007F05BFC06
:100680004FF4804007F046FC70B14FF4804133488E
:1006900007F04DFD20B932480068401C3049086021
:1006A0004FF4804007F047FC05F0EAFA0EBD10B5A4
:1006B00005F0CBFA0121880709F045F838B101218E
:1006C000880709F051F82748006806F00BFE05F08E
:1006D000D7FA10BD10B505F0B8FA2348007800F03D
:1006E000800060BB0221214809F02DF838B31E4874
:1006F000007800F0400078B11B48007840F080009E
:1007000019490870194808F0FFFF194908800021AD
:10071000164808F001FF12E0002013490870144940
:1007200008800021114808F0D9FF0F48007840F0F8
:1007300040000D49087002210C4808F0EDFE0D48FC
:10074000006806F0CFFD0221084809F00DF805F019
:1007500097FA10BD2900002004000020001001407D
:100760002C0000200800002034000020002C014054
:10077000360000200C000020704700BFFEE700BFDD
:10078000FEE700BFFEE700BFFEE7704770470000CE
:100790000CB50020019000906C48006840F4803057
:1007A0006A49086000BF6948006800F400300090A2
:1007B0000198401C0190009818B90198B0F5A06FFD
:1007C000F1D16248006800F4003010B101200090BF
:1007D00001E0002000900098012843D15C480068A7
:1007E00040F010005A4908600846006820F00300F5
:1007F00008600846006840F00200086053484068FE
:10080000524948600846406848600846406840F4DD
:10081000806048600846406820F47C1048600846C4
:10082000406840F4E81048600846006840F0807076
:10083000086000BF4548006800F000700028F9D04B
:100840004248406820F0030040494860084640683C
:1008500040F00200486000BF3C48406800F00C00D7
:100860000828F9D10CBD10B5FFF792FF10BD10B5E7
:100870003648006840F00100344908600846406886
:100880003449084031494860084600683249084008
:100890002E4908600846006820F480200860084659
:1008A000406820F4FE0048604FF41F008860FFF7A6
:1008B000DAFF4FF000602949086010BD10B5002133
:1008C00000200022214B5B6803F00C0121B10429B8
:1008D00006D0082928D107E0214B224C236027E0CD
:1008E0001F4B204C236023E0184B5B6803F470100F
:1008F000164B5B6803F48032022303EB904022B96D
:10090000194B4343174C23600DE0104B5B6803F415
:10091000003323B1144B4343124C236003E0104BCC
:100920004343104C236003E00D4B0E4C236000BF8B
:1009300000BF064B5B68C3F303130C4CE15C094B2F
:100940001B68CB40074C236010BD00000010024024
:10095000002002400000FFF8FFFFF6FE08ED00E077
:1009600000127A003C00002000093D0040000020F9
:1009700010B50446A188206807F0F3FB10BD38B518
:100980000446A088ADF8000010208DF80300032075
:100990008DF802006946206807F036FB2046FFF715
:1009A000E7FF38BD70B505460C461646214884421F
:1009B00004D10121042007F0E3FD2EE01E4884420B
:1009C00004D10121082007F0DBFD26E01B4884420A
:1009D00004D10121102007F0D3FD1EE01848844205
:1009E00004D10121202007F0CBFD16E015488442F8
:1009F00004D10121402007F0C3FD0EE012488442DB
:100A000004D10121802007F0BBFD06E00F4884429D
:100A100003D10121801507F0B3FD2C60AE8028467C
:100A2000FFF7ADFF70BD10B50446A188206807F040
:100A30009AFB10BD00080140000C0140001001406D
:100A40000014014000180140001C0140002001403A
:100A50007FB505460C460121084607F09EFDADF81E
:100A60000850ADF804400020ADF80A00ADF80600CB
:100A700001A94FF0804008F041F80122114690078B
:100A800008F0B3FB1C208DF8000000208DF8010059
:100A900002208DF8020001208DF80300684607F05F
:100AA0005CF90121880708F085FB7FBD30B589B06E
:100AB00005460C460121022007F06FFD01210820A8
:100AC00007F05EFD0120ADF8200018208DF823000E
:100AD00003208DF8220008A93A4807F095FAADF8EE
:100AE0001850ADF814400020ADF81A00ADF816000B
:100AF00005A9354808F002F86020ADF8040001208F
:100B0000ADF806000020ADF80C0001A92E4808F051
:100B1000C1F808212C4808F093FC01212A4808F06C
:100B200049FB09B030BD30B585B005460C46012102
:100B3000C80207F025FD0121042007F021FD4FF434
:100B40008070ADF8100028208DF8130004A91F480C
:100B500007F05AFA4FF480711C4807F004FBADF817
:100B60000850ADF804400020ADF80A00ADF80600CA
:100B700001A9174807F0C2FF0020164908804880E5
:100B8000012088800020C8800881114808F049FAB7
:100B90001B208DF8000002208DF8010003208DF845
:100BA000020001208DF80300684607F0D6F8012204
:100BB0000221074808F019FB0121054808F0FAFA5C
:100BC00005B030BD000C01400004004000080140A9
:100BD000002C0140780F00201FB50121084607F0C6
:100BE000CFFC0121102007F0CBFC4FF48040ADF882
:100BF0000C0048208DF80F0003A92D4807F004FAD7
:100C00000121084607F016FB0220019000208DF814
:100C100008000C208DF8090001208DF80A0001A8B9
:100C200007F012F90C21012007F004FB4FF480506B
:100C3000019000208DF808000C208DF8090001209B
:100C40008DF80A0001A807F0FFF80E21022007F036
:100C5000F1FA4FF48040019000208DF808000C203C
:100C60008DF8090001208DF80A0001A807F0ECF8C2
:100C700028208DF8000001208DF8010000208DF85B
:100C8000020001208DF80300684607F066F807208F
:100C90008DF8000003208DF8010000208DF802007F
:100CA00001208DF80300684607F057F81FBD0000CB
:100CB0000010014070B505460E46144631462846E0
:100CC00000F072FE204600F02EFE70BD2DE9F05FB0
:100CD00004460D4616461F46301B401C1FFA80FA7C
:100CE000781B401C1FFA80FB3B46324629462046B3
:100CF00000F030FE4FF000080FE04FF0000906E072
:100D00000A9800F010FE09F101001FFA80F9D145A0
:100D1000F6DB08F101001FFA80F8D845EDDBFE484C
:100D20004088401E83B2FC480088401E82B20021E9
:100D3000084600F00FFEBDE8F09F2DE9FF4F85B09B
:100D400081468A460020049003900798A0EB09058D
:100D50000898A0EB0A06CDF80890CDF804A0002D65
:100D600001DD012705E00DB9002702E04FF0FF3754
:100D70006D42002E02DD4FF0010806E016B94FF07B
:100D8000000802E04FF0FF387642B54201DD2C4604
:100D900000E034464FF0000B21E0019A91B2029A34
:100DA00090B200F00BFE049828440490039830445D
:100DB00003900498A04205DD0498001B049002985B
:100DC000384402900398A04205DD0398001B03906D
:100DD0000198404401900BF101001FFA80FB601C58
:100DE0008345DADD09B0BDE8F08F2DE9F041044616
:100DF0000D4616461F462B46324629462046FFF72B
:100E00009CFF3B46224629462046FFF796FF3B467D
:100E1000324639462046FFF790FF3B463246294688
:100E20003046FFF78AFFBDE8F081F8B504460D466D
:100E300016461F46B94800883B4632462946009070
:100E40002046FFF743FFF8BD2DE9F04104460D466B
:100E500016461F46DDF81880EA1991B2A21990B221
:100E60004246FFF727FFEA1991B2A21B90B2424611
:100E7000FFF720FFEA1B91B2A21990B24246FFF79A
:100E800019FFEA1B91B2A21B90B24246FFF712FF74
:100E9000AA1991B2E21990B24246FFF70BFFAA19C4
:100EA00091B2E21B90B24246FFF704FFAA1B91B237
:100EB000E21990B24246FFF7FDFEAA1B91B2E21B77
:100EC00090B24246FFF7F6FEBDE8F0812DE9FF4FF4
:100ED00081B0824617469846DDF838B00024454672
:100EE0004FEA4800C0F10306BBF1000F1FD01BE022
:100EF000A14608E04B462246009750460299FFF76C
:100F0000A3FF09F10109A945F4DD002E04DA04204C
:100F100000FB0460861D06E0601B042101FB0060ED
:100F200000F10A066D1E641CAC42E1DD18E015E01C
:100F30002B462246009750460299FFF785FF002E68
:100F400004DA042000FB0460861D06E0601B042117
:100F500001FB006000F10A066D1E641CAC42E7DD77
:100F600005B0BDE8F08F2DE9F04704460D46164662
:100F70001F46DDE908893B46324629462046FFF7F1
:100F8000DCFE4B46424639463046FFF7D6FE2B463E
:100F9000224649464046FFF7D0FEBDE8F08702886A
:100FA0000B8803800A8070472DE9FF4F85B000262B
:100FB0000027BDF81800BDF82010884207DD08A9F9
:100FC00006A8FFF7ECFF07A905A8FFF7E8FFBDF8A3
:100FD0002000BDF84C10884207DD08A913A8FFF7D0
:100FE000DEFF07A912A8FFF7DAFFBDF81800BDF869
:100FF0002010884207DD08A906A8FFF7D0FF07A93F
:1010000005A8FFF7CCFFBDF81800BDF84C108842CA
:1010100038D1BDF8140003900490BDF81C00BDF851
:101020001010884203DABDF81C00049008E0BDF8F7
:101030001C00BDF80C10884202DDBDF81C000390B6
:10104000BDF84800BDF81010884203DABDF848002A
:10105000049008E0BDF84800BDF80C10884202DD9D
:10106000BDF8480003902D4800880090BDF8183066
:10107000BDF80C201946BDF81000FFF727FE09B097
:10108000BDE8F08FBDF81C00BDF81410A0EB010BFB
:10109000BDF82000BDF81810401A0290BDF84800B5
:1010A000BDF81410451ABDF84C00BDF81810A0EB9F
:1010B0000109BDF84800BDF81C10A0EB010ABDF8FD
:1010C0004C00BDF82010401A0190BDF82000BDF87A
:1010D0004C10884202D1BDF8208004E0BDF8200009
:1010E000401E1FFA80F8BDF818402CE0029896FBCD
:1010F000F0F0BDF81410084480B2049097FBF9F0AA
:10110000BDF81410084480B203905E442F44BDF82B
:101110001000BDF80C1003E0820F002050000020EA
:10112000884203DD03A904A8FFF739FFFE480088C1
:1011300023460090BDF80C202146BDF81000FFF7B3
:10114000C5FD601C84B24445D0DDBDF82000201AE6
:1011500000FB0AF6BDF81800201A00FB05F727E08F
:10116000019896FBF0F0BDF81C10084480B2049082
:1011700097FBF9F0BDF81410084480B20390564470
:101180002F44BDF81000BDF80C10884203DD03A900
:1011900004A8FFF704FFE448008823460090BDF848
:1011A0000C202146BDF81000FFF790FD601C84B2B2
:1011B000BDF84C008442D3DD00BF60E72DE9FF4F4E
:1011C00083B081468A469346DDE91064D64800889C
:1011D0000290A6F12000C6B204EBD47009EB6000C7
:1011E000401E82B20AEB0400401E83B251464846BC
:1011F000019400F0AFFB129850BB002525E00C2CA9
:1012000007D106EB4600C94901EB800010F80580C4
:1012100004E0C74800EB061010F8058000270DE039
:1012200008F0010018B1584600F07DFB02E0069876
:1012300000F079FB4FEA6808781CC7B204EBD47160
:10124000B7EB610FECDB681CC5B2A542D7DB2DE024
:10125000002529E00C2C07D106EB4600B34901EB31
:10126000800010F8058004E0B14800EB061010F88B
:101270000580002711E0AC48A0F800B008F001009C
:1012800038B10AEB050291B209EB070290B200F007
:1012900095FB4FEA6808781CC7B204EBD471B7EB32
:1012A000610FE8DB681CC5B2A542D3DB9E490298FA
:1012B0000880A0484088401E83B29E480088401E97
:1012C00082B20021084600F045FB07B0BDE8F08F70
:1012D0002DE9FE4306460F4615461C46DDF82880DC
:1012E0001DE094480088401EB04204DB91484088CD
:1012F000401EB84201DABDE8FE8320788DE8210166
:101300008D4803888848028839463046FFF756FFE3
:10131000284605EBD07106EB61018EB2641C207883
:101320007E2802DC20782028DBDA00BFE3E710B556
:101330000246012000E050430B1EA1F10104E1B27E
:10134000F9D110BD2DE9FF4F83B0074691461E46E7
:10135000109C4FF0000A002543E0701B401EC1B2F4
:101360000A20FFF7E4FFB9FBF0F00A21B0FBF1F22D
:1013700001FB1208BAF1000F1BD1701EA84218DD44
:10138000B8F1000F13D100202021A346CDE90014AD
:10139000029004EBDB71491001FB057188B26649CC
:1013A0000B8861490A880499FFF708FF17E04FF09E
:1013B000010A002108F13000C0B2A346CDE9014185
:1013C000009004EBDB71491001FB057188B25A49AA
:1013D0000B8855490A880499FFF7F0FE00BF681C86
:1013E000C5B2B542B9DB07B0BDE8F08F2DE9FC5FAF
:1013F0000546884691469A46DDF830B000953E2075
:10140000019000245FE004EB04104C4911F8100037
:101410009BF80010884253D104EB0410474901EBBC
:10142000400040789BF80110884249D108F10F0034
:1014300083B205F10F0082B24146284600F08AFAD5
:1014400000263BE0002734E00D9890B904EB04102F
:101450003A4901EB4000801C805D80213941084001
:1014600018B1484600F05FFA21E0504600F05BFA00
:101470001DE02D48A0F8009004EB04102F4901EB6B
:101480004000801C805D80213941084018B14146F0
:10149000284600F093FA681C85B20098281A102894
:1014A00005D1009D08F101001FFA80F803E0781CC7
:1014B000C7B2082FC8DB00BF701CC6B2202EC1DB2C
:1014C00000BF601C84B2019884429CDB19484088AC
:1014D000401E83B217480088401E82B20021084691
:1014E00000F038FABDE8FC9F2DE9FC5F0546884610
:1014F00091469A46DDF830B000950720019000240F
:1015000076E004EB840000EB44100D4911F8100064
:101510009BF80010884268D104EB840000EB441073
:10152000074901EB40000DE0500000205EBC0008C0
:10153000D2C00008820F002052000020C2C600085E
:10154000FECE000840789BF8011088424DD108F18A
:10155000170083B205F1170082B24146284600F019
:10156000F9F900263FE0002738E00D98A0B904EB18
:10157000840000EB4410CD4901EB4000801C805DED
:1015800080213941084018B1484600F0CCF923E0E9
:10159000504600F0C8F91FE0C548A0F8009004EBE1
:1015A000840000EB4410C14901EB4000801C805DC9
:1015B00080213941084018B14146284600F0FEF923
:1015C000681C85B20098281A182805D1009D08F1DA
:1015D00001001FFA80F803E0781CC7B2082FC4DBB3
:1015E00000BF701CC6B2482EBDDB00BF601C84B2B9
:1015F0000198844285DBAF484088401E83B2AD48E5
:101600000088401E82B20021084600F0A3F9BDE820
:10161000FC9F2DE9FC5F0546884691469A46DDF819
:1016200030B000950420019000245FE004EB8410AA
:10163000A14911F810009BF80010884253D104EB27
:1016400084109D4901EB400040789BF801108842CE
:1016500049D108F11F0083B205F11F0082B2414653
:10166000284600F077F900263BE0002734E00D988B
:1016700090B904EB8410904901EB4000801C805D20
:1016800080213941084018B1484600F04CF921E06A
:10169000504600F048F91DE08548A0F8009004EBA2
:1016A0008410854901EB4000801C805D8021394118
:1016B000084018B14146284600F080F9681C85B200
:1016C0000098281A202805D1009D08F101001FFA72
:1016D00080F803E0781CC7B2082FC8DB00BF701C7D
:1016E000C6B2802EC1DB00BF601C84B20198844268
:1016F0009CDB70484088401E83B26E480088401EC4
:1017000082B20021084600F025F9BDE8FC9F2DE9D2
:10171000FF4F83B0064688469146DDE91147109D8C
:10172000B2464FF0000B71E0BBF1000F40D104EB6B
:10173000D471604A1288A2EB6101B14204DB5D49B9
:101740004988091B414502DA07B0BDE8F08F2878C7
:10175000802802DD4FF0010B58E028780D2806D1D3
:1017600008EB04001FFA80F856466D1C1EE0102C92
:101770000DDD102128788DE883004A464146304629
:10178000069BFFF71BFD06F1080086B20EE02878E5
:101790008DE891004A4641463046069BFFF70EFD14
:1017A000204604EBD07106EB61018EB26D1C2DE07A
:1017B00040480088001BB04204DB3E484088001BC4
:1017C000404500DAC0E74FF0000B202C08D1CDE9EE
:1017D00000574A4641463046069BFFF71AFF12E083
:1017E000182C08D1CDE900574A4641463046069BA1
:1017F000FFF77AFE07E0CDE900574A4641463046FA
:10180000069BFFF7F3FDAD1C301986B2287800283F
:101810008AD100BF98E72DE9FE4F0E46174698463D
:10182000DDE90D9A0C9C204608F030FB85B2214979
:101830000988A1EBC50000EBD071C1F34F0B434603
:101840003A46314658468DE81006FFF760FFBDE87E
:10185000FE8F2DE9F04706460F46154607F1270093
:1018600083B206F1270082B23946304600F072F8A2
:1018700000240AE015F8149005EB440090F801806C
:1018800049EA082000F04FF8641CB4F5C86FF1DB9A
:1018900008484088401E83B206480088401E82B235
:1018A0000021084600F056F8BDE8F087FECE00089B
:1018B00050000020820F002004D1000810B504461B
:1018C0004FF40070FE490860802008602146FD4802
:1018D00000F038FA4FF40070F949091F086010BD94
:1018E00010B504464FF40070F54908608020091FC8
:1018F00008602146F34800F025FA4FF40070F049E3
:10190000091F086010BD70B505460C462846FFF754
:10191000D5FFE0B2FFF7E4FF70BD10B5EA49087AE1
:10192000FFF7CCFF10BD10B504464FF40070E4493A
:1019300008608020091F08602112E24800F002FAC6
:10194000E1B2E04800F0FEF94FF40070DC49091FF5
:10195000086010BD2DE9F04104460D4616461F46AD
:10196000D949887AFFF7AAFF0020FFF7B9FFE0B254
:10197000FFF7B6FF0020FFF7B3FFF0B2FFF7B0FFAD
:10198000D149087BFFF79AFF0020FFF7A9FFE8B2D3
:10199000FFF7A6FF0020FFF7A3FFF8B2FFF7A0FFB5
:1019A000FFF7BBFFBDE8F08170B504460D462B463E
:1019B000224629462046FFF7CDFF70BD70B504468C
:1019C0000D4629462046FFF7EFFFC0480088FFF785
:1019D000AAFF70BD70B50646BB484088401E83B262
:1019E000B9480088401E82B200210846FFF7B2FFC6
:1019F0004FF40070B24908608020091F086000247D
:101A00000AE0002503E03046FFF78DFF6D1CAE486D
:101A10000088A842F7D8641CAB484088A042F0D8A0
:101A20004FF40070A649091F086070BD08B5012178
:101A3000082006F0A5FD4FF47070ADF800000320FB
:101A40008DF8020010208DF8030069469C48143878
:101A500006F0DAFA08BD10B54FF4807098490860B6
:101A6000642003F010FE4FF480709549091F086050
:101A7000322003F008FE10BD10B504462A2092491A
:101A800048812B2088812C20088134B1012C0ED074
:101A9000022C16D0032C28D11DE080208A49088012
:101AA000A0204880C0213620FFF72DFF1EE0A02097
:101AB0008549088080204880A0213620FFF723FF39
:101AC00014E0802080490880A02048800021362032
:101AD000FFF719FF0AE0A0207B490880802048809A
:101AE00060213620FFF70FFF00E000BF00BF10BDF0
:101AF00010B500F04BF9FFF799FFFFF7ACFF11208D
:101B0000FFF7DCFE782003F0BEFDB120FFF7D6FE24
:101B10000120FFF7E5FE2C20FFF7E2FE2D20FFF766
:101B2000DFFEB220FFF7CAFE0120FFF7D9FE2C200E
:101B3000FFF7D6FE2D20FFF7D3FEB320FFF7BEFE42
:101B40000120FFF7CDFE2C20FFF7CAFE2D20FFF766
:101B5000C7FE0120FFF7C4FE2C20FFF7C1FE2D2099
:101B6000FFF7BEFEB420FFF7A9FE0720FFF7B8FE7F
:101B7000C020FFF7A3FEA220FFF7B2FE0220FFF76E
:101B8000AFFE8420FFF7ACFEC120FFF797FEC52013
:101B9000FFF7A6FEC220FFF791FE0A20FFF7A0FE86
:101BA0000020FFF79DFEC320FFF788FE8A20FFF785
:101BB00097FE2A20FFF794FEC420FFF77FFE8A20BD
:101BC000FFF78EFEEE20FFF78BFEC520FFF776FEB7
:101BD0000E20FFF785FE3620FFF770FEC020FFF7CE
:101BE0007FFEE020FFF76AFE0F20FFF779FE1A2044
:101BF000FFF776FE0F20FFF773FE1820FFF770FE49
:101C00002F20FFF76DFE2820FFF76AFE2020FFF748
:101C100067FE2220FFF764FE1F20FFF761FE1B20F6
:101C2000FFF75EFE2320FFF75BFE3720FFF758FE2D
:101C30000020FFF755FE0720FFF752FE0220FFF7B6
:101C40004FFE1020FFF74CFEE120FFF737FE0F207C
:101C5000FFF746FE1B20FFF743FE0F20FFF740FE75
:101C60001720FFF73DFE3320FFF73AFE2C20FFF749
:101C700037FE2920FFF734FE2E20FFF731FE3020FB
:101C8000FFF72EFE3020FFF72BFE3920FFF728FE4E
:101C90003F20FFF725FE0020FFF722FE0720FFF779
:101CA0001FFE0320FFF71CFE1020FFF719FE2A205D
:101CB000FFF704FE0020FFF713FE002008E00000FD
:101CC000140C014000300140820F00205000002021
:101CD000FFF706FE0020FFF703FE7F20FFF700FE60
:101CE0002B20FFF7EBFD0020FFF7FAFD0020FFF7A8
:101CF000F7FD0020FFF7F4FD9F20FFF7F1FDF02036
:101D0000FFF7DCFD0120FFF7EBFDF620FFF7D6FD26
:101D10000020FFF7E5FD3A20FFF7D0FD0520FFF793
:101D2000DFFD2920FFF7CAFD0020FFF7A5FE0120F7
:101D3000034908604FF6FF70FFF74CFE10BD00002E
:101D400098812142024600BF108900F0020000285D
:101D5000FAD0918100BF108900F001000028FAD06C
:101D60009089C0B2704702884FF6C7731A4002804C
:101D7000012902D10288028003E0028842F0200299
:101D80000280028842F040020280704700B587B0AE
:101D90000121052006F0F4FBA020ADF8040003208B
:101DA0008DF8060018208DF8070001A91B4806F0E1
:101DB0002BF94020ADF8040048208DF807000320DF
:101DC0008DF8060001A9154806F01EF90121080347
:101DD00006F0D6FB0020ADF808004FF48270ADF895
:101DE0000A000020ADF80C00ADF80E00ADF81000B0
:101DF0004FF40070ADF812000020ADF81400ADF8FB
:101E000016000720ADF8180002A9054806F042FCAC
:101E10000121034806F0E3FC07B000BD00080140C3
:101E20000030014010B50446A188206806F09BF9F7
:101E300010BD38B50446A088ADF8000010208DF81C
:101E4000030003208DF802006946206806F0DCF8E4
:101E50002046FFF7E7FF38BD70B505460C4616462D
:101E60002148844204D10121042006F089FB2EE0A0
:101E70001E48844204D10121082006F081FB26E09F
:101E80001B48844204D10121102006F079FB1EE09A
:101E90001848844204D10121202006F071FB16E08D
:101EA0001548844204D10121402006F069FB0EE070
:101EB0001248844204D10121802006F061FB06E033
:101EC0000F48844203D10121801506F059FB2C6094
:101ED000AE802846FFF7ADFF70BD10B50446A1885F
:101EE000206806F03EF910BD00080140000C0140DA
:101EF000001001400014014000180140001C014086
:101F00000020014038B50446A088ADF8000010203C
:101F10008DF8030003208DF802006946206806F062
:101F200073F838BD70B505460C4616462548844200
:101F300004D10121042006F023FB2EE02248844234
:101F400004D10121082006F01BFB26E01F48844233
:101F500004D10121102006F013FB1EE01C4884422E
:101F600004D10121202006F00BFB16E01948844221
:101F700004D10121402006F003FB0EE01648844204
:101F800004D10121802006F0FBFA06E013488442C8
:101F900003D10121801506F0F3FA2C60AE802846AB
:101FA000FFF7B0FF70BD10B50446A188206806F0A9
:101FB000D8F8322003F03CFBA188206806F0D3F863
:101FC00010BD000000080140000C0140001001405D
:101FD0000014014000180140001C01400020014095
:101FE00038B50446F74890F82400C0B114B1022077
:101FF000009001E000200090F24A1268D17BF14A83
:10200000526810786B46012203F063F910B14FF06B
:10201000FF3038BD9DF80010EA48417423E0E948DC
:10202000807A10B94FF0FF30F3E724B1E548407CE7
:1020300008B10020EDE714B10120009001E000207C
:102040000090E04A1268D17BDE4A526810786B46F5
:10205000012203F03EF910B14FF0FF30D9E79DF8AF
:102060000010D84841740020D3E738B500241FE0A1
:10207000D4480068C07AA04204D0D2480068407DAD
:10208000A04200D112E0CF49496808786B4601228E
:10209000214603F069F810B14FF0FF3038BD9DF8CC
:1020A00000202146C8A007F08DFD00BF601CC4B20F
:1020B000C44840680079A042DADC0020EEE770B541
:1020C00004460D46BF480068C07AA04204D0BD480F
:1020D0000068407DA04202D14FF0FF3070BDB9488A
:1020E00040680079A04202DC4FF0FF30F6E7B549C6
:1020F000496808782B460122214603F035F8EDE7C0
:1021000038B50446AF4890F82300A04201D1002022
:1021100038BD14B13020009001E000200090A948A3
:10212000807C20B19DF8000040F002000090A5489E
:1021300090F8220020B19DF8000040F0800000904F
:10214000A04A1268117D9F4A526810786B4601229E
:1021500003F0BFF810B14FF0FF30D9E7994880F88D
:1021600023400020D4E738B5044604F0700010B1D5
:102170000120009005E014B10020009001E0402013
:102180000090904A1268917C8E4A526810786B4693
:10219000012203F09EF820B100218A488172481E76
:1021A00038BD9DF8000020F04001864801730020F2
:1021B000009004F0400020B99DF8000040F00400B9
:1021C000009004F0200020B99DF8000040F00200CB
:1021D000009004F0100020B99DF8000040F00100CC
:1021E000009004F0080020B99DF8000040F038008D
:1021F0000090744A1268D17C724A526810786B461B
:10220000012203F066F820B100216E488172481E59
:10221000C6E724B1082C02D00020FFF771FF6948FF
:10222000847200210175322003F02DFA0020B7E7F7
:1022300038B504466348807CA04201D1002038BDF7
:10224000002C46D05F4A126811795E4A52681078B5
:102250006B46012202F088FF10B14FF0FF30EEE72D
:102260009DF8000020F020000090564A1268117975
:10227000544A526810786B46012203F02AF810B1D4
:102280004FF0FF30DBE7032003F0FDF90220009060
:102290004C4890F8220020B19DF8000040F08000EA
:1022A0000090484890F8230020B19DF8000040F0CD
:1022B00030000090434A1268117D424A52681078FB
:1022C0006B46012203F005F8002851D04FF0FF3093
:1022D000B5E73C4A126811793A4A526810786B4661
:1022E000012202F041FF10B14FF0FF30A7E735485F
:1022F000807A00F0010028B19DF8000040F0200035
:10230000009004E09DF8000020F0200000902D4A8D
:10231000126811792B4A526810786B46012202F03C
:10232000D8FF10B14FF0FF3089E7032003F0ABF97D
:10233000244890F8220010B18020009001E0002095
:102340000090204890F8230020B19DF8000040F054
:10235000300000901B4A1268117D1A4A52681078AA
:102360006B46012202F0B5FF10B14FF0FF3066E777
:1023700014488474002062E708B51248807A10B9C6
:102380004FF0FF3008BD002000900E4A1268D17B4C
:102390000C4A526810786B46012202F09AFF10B185
:1023A0004FF0FF30EEE7074A12685179054A52684C
:1023B00010786B46012202F08CFF68B14FF0FF30BD
:1023C000E0E7000058000020252335783A20252337
:1023D00035780D0A00000000F84A12681179F74AB2
:1023E000526810786B46012202F073FF10B14FF073
:1023F000FF30C7E7F14890F82400002853D00C20A4
:102400000090EE4A12681179EC4A526810786B46D7
:10241000012202F05EFF10B14FF0FF30B2E7322030
:1024200003F031F9C0200090E448807A00F0010008
:1024300020B19DF8000040F020000090DF4A1268B3
:102440001179DE4A526810786B46012202F041FF92
:1024500010B14FF0FF3095E7D848407C10B1022012
:10246000009001E000200090D44A1268D17BD34A4A
:10247000526810786B46012202F02BFF10B14FF02A
:10248000FF307FE700200090CC4A12685179CB4A98
:10249000526810786B46012202F01BFF002855D0CD
:1024A0004FF0FF306EE704200090C44A12681179A3
:1024B000C24A526810786B46012202F00AFF10B13E
:1024C0004FF0FF305EE7BD48807C20B9BB48807A82
:1024D00000F0010010B94020009001E06020009061
:1024E000B64A12681179B54A526810786B460122D3
:1024F00002F0EFFE10B14FF0FF3043E7322003F05F
:10250000C2F8AE48407C10B10120009001E00020EC
:102510000090AA4A1268D17BA84A526810786B468C
:10252000012202F0D6FE10B14FF0FF302AE7A34A95
:1025300012685179A14A52681078A04B10330122D9
:1025400002F0C7FE10B14FF0FF301BE7002019E783
:1025500070B50446002624F00104984890F8240041
:1025600008B1002070BD9548807A10B94FF0FF3057
:10257000F8E79248057C807A204090490874084624
:10258000007CA04202D04FF0FF3600E0002614B9D4
:102590008A48007D18B10120FFF722FD02E00020EB
:1025A000FFF71EFD3CB1FFF7E7FE20B1834805743D
:1025B0004FF0FF30D6E73046D4E738B504467F48C1
:1025C000807A10B94FF0FF3038BDBC2C02DB0120FF
:1025D000009015E0622C02DB0220009010E02A2C13
:1025E00002DB032000900BE0142C02DB042000909F
:1025F00006E00A2C02DB0520009001E00620009096
:102600006E48C07A9DF80010884201D10020DBE7B7
:102610006A4A12689178694A526810786B460122BA
:1026200002F057FE10B14FF0FF30CDE79DF80010DB
:102630006248C1720020C7E738B50446282C02DD85
:102640004FF0FF3038BDDCB90020FFF759FD002006
:102650008DF8000007208DF80100584A1268917C1F
:10266000564A526810786B46022202F032FE10B1D0
:102670004FF0FF30E6E70021504801750020E1E708
:102680000120FFF73DFD20208DF80000012C06D130
:1026900000208DF801000520FFF78FFF17E0052CC3
:1026A00006DC01208DF801000520FFF786FF0EE013
:1026B000142C06DC02208DF801000A20FFF77DFFB4
:1026C00005E003208DF801001420FFF776FF9DF848
:1026D0000100072101EB8010C0B28DF80100374ADC
:1026E0001268917C354A526810786B46022202F0DB
:1026F000F0FD10B14FF0FF30A4E708212F488172A0
:1027000000210173012101750020FFF721FF002046
:1027100098E738B504462948807A10B94FF0FF3061
:1027200038BD264890F8240010B14FF0FF30F7E78D
:102730002248007D50B134B1282C04DCE0B2FFF710
:102740007BFF0020ECE70020FFF776FF042C01DA86
:10275000042404E0B4F57A7F01DD4FF47A744FF479
:102760007A7090FBF4F0401EC0B20090134A1268D9
:102770005178124A526810786B46012202F0A9FD86
:1027800010B14FF0FF30CBE79DF80000401C4FF434
:102790007A7191FBF0F081B20848C1810146C98984
:1027A0004810FFF70AFF0020BAE738B5044603488F
:1027B000807A28B94FF0FF3038BD00005800002063
:1027C000022C06D0042C07D0082C08D0102C0CD1D9
:1027D00008E0002000900BE00820009008E01020A6
:1027E000009005E01820009002E04FF0FF30E3E792
:1027F00000BFF948407A9DF80010B0EBE10F01D11D
:102800000020D9E7F44A1268D179F34A5268107867
:102810006B46012202F05DFD10B14FF0FF30CBE7B7
:102820009DF80000C110EC4841720020C4E738B5A3
:102830000446E948807A10B94FF0FF3038BDFA2CD1
:1028400009D0B4F5FA7F09D0B4F57A7F09D0B4F590
:10285000FA6F0CD108E0002000900BE008200090F7
:1028600008E01020009005E01820009002E04FF0F2
:10287000FF30E3E700BFD848007A9DF80010B0EBC6
:10288000E10F01D10020D9E7D34A12689179D24AE9
:10289000526810786B46012202F01BFD10B14FF018
:1028A000FF30CBE79DF80000C010CB490872002034
:1028B000C4E71CB580208DF80000C74A1268917CDF
:1028C000C54A526810786B46012202F002FD10B131
:1028D0004FF0FF301CBD642002F0D5FE00208DF8C3
:1028E0000000BD4A1268917CBB4A526810786B4662
:1028F000012202F0EEFC10B14FF0FF30EAE7B64AD9
:102900001268917DB44A526810786B46062202F034
:102910002BFC10B14FF0FF30DCE79DF80500C0073D
:10292000400F9DF8031001F0010140EA41009DF8BD
:10293000011001F0010140EA010494B1012C03D11E
:102940000121A548C17431E0022C03D10021A24825
:10295000C1742BE02146A1A007F034F94FF0FF30FD
:10296000B8E79D4A1268D1789B4A526810786B4646
:10297000012202F0F9FB10B14FF0FF30AAE79DF8F9
:10298000000000F00F042CB99E4807F01BF94FF02F
:10299000FF309FE7042C06D19BA007F013F901211B
:1029A0008D48C17402E000218B48C174FF218A4820
:1029B0008172FF2088490872FF2187484172C172E5
:1029C0004FF6FF71C181FF210174817401210173F0
:1029D00080F82210002180F823104175017516300F
:1029E000016041608160163880F8241080F825105D
:1029F000C1844FF4FA60FFF71AFF10B14FF0FF30B7
:102A000068E70220FFF7D1FE10B14FF0FF3061E719
:102A10002A20FFF7D2FD10B14FF0FF305AE73220E5
:102A2000FFF777FE10B14FF0FF3053E70020FFF7BC
:102A30008FFD10B14FF0FF304CE70020FFF7F8FB9F
:102A400010B14FF0FF3045E70020FFF78CFB00206E
:102A500040E770477CB504460D465F48807A00F039
:102A6000700010B94FF0FF307CBD5B4A1268117BDB
:102A7000594A526810786B46062202F075FB10B175
:102A80004FF0FF30F0E79DF801009DF8001040EA9C
:102A9000012000B220809DF803009DF8021040EA5A
:102AA000012000B260809DF805009DF8041040EA06
:102AB000012000B2A08015B12846FFF7CAFF002010
:102AC000D2E77CB504460D464348807A00F0080002
:102AD00010B94FF0FF307CBD3F4A1268517B3E4A2F
:102AE000526810786B46062202F03EFB10B14FF0A0
:102AF000FF30F0E79DF801009DF8001040EA01204A
:102B000000B220809DF803009DF8021040EA0120E9
:102B100000B260809DF805009DF8041040EA012095
:102B200000B2A08015B12846FFF793FF0020D2E73E
:102B30002DE9FE4F05460C462748807A18B94FF01C
:102B4000FF30BDE8FE8F244A1268917B224A52680A
:102B5000107802AB022202F007FB10B14FF0FF30F9
:102B6000EFE79DF809009DF8081040EA012006B241
:102B700014B12046FFF76DFF17494968C88808F06F
:102B80003BFE154901904968B1F9080008F01CFEA8
:102B90008346304608F018FE5946009008F072FF50
:102BA0008246019908F0DEFC81461F4908F06CFC62
:102BB00080464FF08F4108F067FE074608F0C8FDD9
:102BC00028600020BDE710B588B004461CB94FF05E
:102BD000FF3008B010BD29E058000020556E737515
:102BE00070706F7274656420736F6674776172655C
:102BF0002070726F64756374207265762025642E70
:102C00000A00000080E1000848616C662073656E70
:102C10007369746976697479207061727420666F63
:102C2000756E642E0A00000000000C42206830B966
:102C3000606820B9A06810B9002008B010BDFA493A
:102C40004968087806AB0322114602F08DFA10B1EC
:102C50004FF0FF30F1E79DF81800082101EB20103C
:102C600000F00F00ADF800009DF8190001EB2010F6
:102C700000F00F00ADF802009DF81A0001EB2010E3
:102C800000F00F00ADF8040020684100BDF900001D
:102C9000403091FBF0F000B2ADF8100060684100E8
:102CA000BDF90200403091FBF0F000B2ADF8120027
:102CB000A0684100BDF90400403091FBF0F000B283
:102CC000ADF81400D8494968087806AB06221146C9
:102CD00002F04AFA10B14FF0FF30AEE79DF819004C
:102CE0009DF8181040EA012000B2ADF808009DF8E8
:102CF0001B009DF81A1040EA012000B2ADF80A004E
:102D00009DF81D009DF81C1040EA012000B2ADF8AE
:102D10000C00BDF81000BDF80810084400B2ADF872
:102D20001000BDF81200BDF80A10084400B2ADF85A
:102D30001200BDF81400BDF80C10084400B2ADF844
:102D40001400BDF81000000A8DF81800BDF810003E
:102D5000C0B28DF81900BDF81200000A8DF81A00F3
:102D6000BDF81200C0B28DF81B00BDF81400000AB7
:102D70008DF81C00BDF81400C0B28DF81D00AA49E2
:102D80004968087806AB0622114602F0A2FA10B193
:102D90004FF0FF3051E700204FE70146A248007A8C
:102DA00030B1012807D0022809D003280FD10AE04A
:102DB000FA2008800EE04FF4FA7008800AE04FF421
:102DC0007A70088006E04FF4FA60088002E0002084
:102DD000088000BF00BF0020704701469248407A3B
:102DE00030B1012807D0022808D003280CD108E010
:102DF000022008700BE00420087008E0082008702A
:102E000005E01020087002E04FF0FF30704700BF6F
:102E10008548C07C18B108784006000E0870002074
:102E2000F4E701468048C07A082817D2DFE800F0AE
:102E30001704070A0D101318BC20088013E0622045
:102E4000088010E02A2008800DE0142008800AE0A5
:102E50000A20088007E00520088004E000BF00BFCA
:102E60000020088000BF00BF0020704701466E4868
:102E700090F8240010B14FF0FF3070476A48C089C5
:102E800008800020F9E7014600200880401E7047B6
:102E900001464FF0FF30704701466348007A30B179
:102EA000012807D0022808D003280CD108E05F4889
:102EB00008600BE05E48086008E05E48086005E0D6
:102EC0005D48086002E04FF0FF30704700BF00200F
:102ED000FBE701465448407A30B1012808D0022867
:102EE0000AD0032810D10BE04FF4804008800EE098
:102EF00041F69C7008800AE04FF48050088006E09C
:102F00004FF40060088002E04FF0FF30704700BFD0
:102F10004548C07C10B10888401008800020F5E7C3
:102F200001464148007C08700020704701463E4839
:102F3000807A10B10120087001E0002008700020A4
:102F4000704738B504463848807A10B94FF0FF30E2
:102F500038BD354A1268117C334A526810786B4686
:102F6000022202F001F910B14FF0FF30F0E79DF8B6
:102F700001009DF8001040EA012000B220800020EE
:102F8000E6E72DE9FE4F0746884692461D46DDF8E6
:102F900030B000260024244890F8240010B1601EB0
:102FA000BDE8FE8F002028701F48807A10B94FF0CE
:102FB000FF30F5E71C48007C10B94FF0FF30EFE719
:102FC0001948007C00F0400008B1B01CC6B2164899
:102FD000007C00F0200008B1B01CC6B21248007C92
:102FE00000F0100008B1B01CC6B20F48007C00F021
:102FF000080008B1B01DC6B20B4A1268917A0A4A9D
:10300000526810786B46022202F0AEF810B14FF011
:10301000FF30C5E79DF801009DF8001040EA012946
:10302000B1450BDA0020BBE7580000200000034345
:10303000000083423333034233338341FC4840680A
:103040004088B9EB600F17DDF94A1268517CF84AE5
:10305000526810786B46012202F086F810B14FF0EA
:10306000FF309DE79DF8000000F0100020B1FFF751
:1030700083F96FF0010093E75046FFF7EAFCEC4A52
:103080001268D17AEA4A526810786B46324602F0EA
:103090006BF810B14FF0FF3082E799FBF6F0401E5D
:1030A0008BF8000000202870B4422AD0E048007C51
:1030B00000F0080028B3601C1DF800001DF8041083
:1030C00040EA012000B2A8F80000E01C1DF8001042
:1030D000A01C1DF8000041EA002000B2A8F8020080
:1030E000601D1DF80010201D1DF8000041EA0020A1
:1030F00000B2A8F80400287840F008002870A01D4D
:1031000084B2B44213D0CA48007C00F0400070B1D1
:10311000601C1DF800001DF8041040EA012000B2F8
:103120003880287840F040002870A01C84B2B44257
:1031300013D0BF48007C00F0200070B1601C1DF867
:1031400000001DF8041040EA012000B278802878C1
:1031500040F020002870A01C84B2B44213D0B448C0
:10316000007C00F0100070B1601C1DF800001DF81C
:10317000041040EA012000B2B880287840F0100026
:103180002870A01C84B200200AE7F8B504460F4658
:103190001646A74890F8240010B94FF0FF30F8BD4C
:1031A000A348807A10B94FF0FF30F8E7A04A1268C0
:1031B000917A9F4A526810786B46022201F0D4FF40
:1031C00010B14FF0FF30EAE79DF801009DF80010C4
:1031D00040EA0125A54203DA00203070401EDEE7F8
:1031E000934840684088B5EB600F17DD904A12683D
:1031F000517C8F4A526810786B46012201F0B4FF6F
:1032000010B14FF0FF30CAE79DF8000000F0100049
:1032100020B1FFF7B1F86FF00100C0E7E2B2844BD4
:103220001B68D97A824B5B6818783B4601F09CFF9B
:1032300010B14FF0FF30B2E795FBF4F0401E307054
:103240000020ACE701467A4880F822100020704741
:103250007CB5054676494968087801AB04220D2102
:1032600001F082FF08B107207CBD9DF80700C0F384
:1032700001109DF8041001F0E00140EAE1008DF832
:1032800000009DF80700C0F381009DF8051001F0D3
:10329000E00140EAE1008DF801009DF8070000F030
:1032A00003009DF8061001F0E00140EAE1008DF80E
:1032B000020000241CE01DF8040018B9002045F8A5
:1032C000240013E05B4845F8240006E055F824008C
:1032D000594908F0D9FA45F824001DF80400401EA9
:1032E000C0B20DF804000028F0D100BF601CC4B2C9
:1032F000032CE0DB0020B7E72DE9FE4F06460F4622
:1033000000256846FFF7A4FF002442E056F8240099
:1033100057F82410A0EB010ABAF1000F01DB514667
:1033200001E0CAF10001084608F04EFA83464FF06A
:103330008F4108F017F980465DF82400002108F05D
:10334000D3F916D05DF82410404608F00BF98246F8
:103350004FF07E5108F096FB814629F0004A37482D
:10336000416A504608F05CFB12D20120A0400543A0
:103370000EE03248C169404608F052FA05D32F48A2
:10338000016A404608F04CFB02D20120A0400543F0
:10339000641C032CBADB2846BDE8FE8F2DE9FC5FD8
:1033A00006460F46002522494968087801AB0322EA
:1033B0000D2101F0D9FE10B10720BDE8FC9F9DF85A
:1033C000040000F01F008DF804009DF8050000F0D7
:1033D0001F008DF805009DF8060000F01F008DF815
:1033E0000600002462E056F8240057F82410A0EBF1
:1033F000010BBBF1000F01DB594601E0CBF10001ED
:10340000084608F0E1F94FF08F41009008F0AAF863
:10341000814601A8005DC0B30849086808F0ECF9CE
:1034200083465946064808F09DF880460FE00000A4
:10343000580000207B14AE3E1D5A843F34D3000850
:1034400000B04C45FE49404608F01EFA804601A8EF
:10345000005D401EC0B201A908550028F2D14146C6
:10346000484608F07FF883464FF07E5108F00AFB8B
:1034700082462AF0004BF3488169584608F0D0FA9A
:1034800013D20120A04005430FE0FFE7ED4801699A
:10349000484608F0C5F905D3EA484169484608F0AE
:1034A000BFFA02D20120A0400543641C032C9ADB22
:1034B000284682E72DE9F04F87B005460C46914635
:1034C00001208DF8100000208DF81100DE4A1268EE
:1034D000917CDD4A5268107804AB022201F0F9FEBB
:1034E00020B14FF0FF3007B0BDE8F08FC82002F0E8
:1034F000CAF800208DF81000D34A1268D17BD24A56
:103500005268107804AB012201F0E3FE10B14FF0D5
:10351000FF30E8E7CC4A12685179CB4A52681078FC
:1035200004AB012201F0D5FE10B14FF0FF30DAE715
:10353000C54A1268917CC44A5268107804AB0122D3
:1035400001F0C7FE10B14FF0FF30CCE7BE4A126861
:10355000D17DBD4A5268107804AB012201F0B9FE5A
:1035600010B14FF0FF30BEE7B74A12681179B64A82
:103570005268107804AB012201F0ABFE10B14FF09D
:10358000FF30B0E70C208DF81000AF4A12681179B7
:10359000AD4A5268107804AB012201F09AFE10B1D6
:1035A0004FF0FF309FE70F2002F06DF8A648806AC9
:1035B000407A8DF81000A44A12689178A24A5268A5
:1035C000107804AB012201F084FE10B14FF0FF30FF
:1035D00089E79D48806A007A8DF810009A4A12683F
:1035E0005178994A5268107804AB012201F071FEBB
:1035F00010B14FF0FF3076E7B9F1000F07D09248D5
:10360000806A807A40F0E0008DF8100004E08E4877
:10361000806A807A8DF810008B4A126891798A4A04
:103620005268107804AB012201F053FE10B14FF044
:10363000FF3058E7B9F1000F07D08348806AC07A9D
:1036400040F0E0008DF8100003E07E48C07A8DF86D
:1036500010007D4A1268D1797B4A5268107804AB19
:10366000012201F036FE10B14FF0FF303BE7B9F117
:10367000000F02D0C82002F006F840208DF810009C
:10368000714A12681179704A5268107804AB0122AD
:1036900001F01FFE10B14FF0FF3024E778208DF8C5
:1036A0001000694A12685179674A5268107804AB71
:1036B000012201F00EFE10B14FF0FF3013E7614917
:1036C000888901F0E0FF00208DF810005E4A126842
:1036D00051795D4A5268107804AB012201F0F9FD7E
:1036E00010B14FF0FF30FEE6574A1268917A564A01
:1036F0005268107804AB022201F036FD10B14FF091
:10370000FF30F0E69DF811009DF8101040EA012B03
:103710000C209BFBF0F0C6B20020A8606860286017
:10372000A06060602060824665E0474A1268D17AF6
:10373000454A5268107804AB0C2201F015FD10B117
:103740004FF0FF30CFE69DF811009DF8101040EAD1
:10375000012000B2ADF808009DF813009DF812108A
:1037600040EA012000B2ADF80A009DF815009DF86E
:10377000141040EA012000B2ADF80C00BDF90810A9
:10378000206808442060BDF90A1060680844606041
:10379000BDF90C10A0680844A0609DF817009DF8C2
:1037A000161040EA012000B2ADF800009DF81900A3
:1037B0009DF8181040EA012000B2ADF802009DF813
:1037C0001B009DF81A1040EA012000B2ADF8040079
:1037D000BDF90010286808442860BDF90210686827
:1037E00008446860BDF90410A8680844A8600AF19C
:1037F000010000F0FF0AB24597DB1248D0F800C084
:103800002868C117090441EA1041070462460023F1
:10381000384606F0B2F932460023CDE9020106F03F
:10382000ACF928600748D0F800C06868C1170904DF
:1038300041EA1041070462460023384606E00000D2
:1038400054E3853F34D300085800002006F095F972
:1038500032460023CDE9020106F08FF96860FE4888
:10386000D0F800C0A868C117090441EA1041070454
:1038700062460023384606F080F932460023CDE93F
:10388000020106F07AF9A860F348D0F804C0216874
:10389000C817000440EA11480F0462460023384666
:1038A000414606F06AF932460023CDE9020106F0EE
:1038B00064F92060E848D0F804C06068C1170904C2
:1038C00041EA1041070462460023384606F055F9E4
:1038D00032460023CDE9020106F04FF96060DE4870
:1038E000D0F804C0A068C117090441EA10410704D8
:1038F00062460023384606F040F932460023CDE9FF
:10390000020106F03AF9A060A068002804DDA06872
:10391000A0F58030A06003E0A06800F58030A060D2
:103920000020E0E538B50446CC4890F82400A042D9
:1039300001D1002038BD24B3C84890F8250010B943
:103940004FF0FF30F6E70020FEF74AFB0020FEF7BD
:103950006FFCC249C88CFEF7DCFE00200090BF4916
:10396000496808786B460122232101F0B2FC01214D
:10397000BA4880F824100120FEF732FBFEF7FCFC69
:1039800013E00020FEF72CFBB448007C0090B34904
:10399000496808786B460122232101F09AFC002136
:1039A000AE4880F82410FEF7E7FC0020C2E72DE9BE
:1039B000F04F8DB083460F4602200C90A74890F838
:1039C000240020B10020FFF7ADFF012600E0002613
:1039D00003A8FFF7E2F905A8FFF7FFF901A8FFF731
:1039E00020FA02A8FFF742FA9C4890F80AA004A81F
:1039F000FFF796FA002407E0002239465846FFF701
:103A000059FD00B902E0641C022CF5DB00BF022C5A
:103A100001D1002528E0002407E0012206A909A819
:103A2000FFF748FD00B902E0641C022CF5DB00BF83
:103A3000022C01D1002517E006A93846FFF75CFCEF
:103A400000F0FF0809A95846FFF7A8FC00F0FF099D
:103A50000025B9F1000F01D145F00105B8F1000FC3
:103A600001D145F0020500BFFF207C490872FF210B
:103A70007A484172C1724FF6FF71C181FF21817294
:103A8000017401210173BDF80C00FEF7D0FE9DF812
:103A90001400FEF78AFEBDF80400FEF78EFDBDF8A7
:103AA0000800FEF736FE5046FEF75DFB9DF810005D
:103AB000FEF74EFD16B10120FFF734FF28460DB08A
:103AC000BDE8F08FF8B504460D46164616B94FF01E
:103AD000FF30F8BD6148807A10B94FF0FF30F8E749
:103AE00020128DF80000E0B28DF801009DF8010071
:103AF00028445A4949684989884202DD4FF0FF301D
:103B0000E7E7564A1268117E544A526810786B46AD
:103B1000022201F0DEFB10B14FF0FF30D9E7EAB22C
:103B20004E4B1B68597D4D4B5B681878334601F04E
:103B3000D0FB10B14FF0FF30CBE70020C9E7F8B55C
:103B400004460D46164616B94FF0FF30F8BD4348FF
:103B5000807A10B94FF0FF30F8E720128DF800009E
:103B6000E0B28DF801009DF8010028443B49496806
:103B70004989884202DD4FF0FF30E7E7374A126893
:103B8000117E364A526810786B46022201F0A1FB82
:103B900010B14FF0FF30D9E7EAB2304B1B68597DC6
:103BA0002E4B5B681878334601F0DEFA10B14FF007
:103BB000FF30CBE70020C9E72DE9F04385B005468B
:103BC0000E4690469946254890F8250020B14FF0C2
:103BD000FF3005B0BDE8F08316B94FF0FF30F8E7CD
:103BE000002423E0281B102801DD102000E0281B02
:103BF00087B2321939462046FFF764FF10B14FF003
:103C0000FF30E6E701AA39462046FFF798FF10B1DA
:103C10004FF0FF30DDE730193A4601A906F00AF906
:103C200010B16FF00100D4E7E01984B2AC42D9DBE7
:103C30004FEA28208DF8000008F0FF008DF8010001
:103C4000064A1268917E054A526810786B46022235
:103C500001F03FFB38B103E034D3000858000020E6
:103C60004FF0FF30B5E70121FE4880F82510A0F89D
:103C700026900020ADE70146FA4890F8240008702D
:103C8000002070474FF0FF30704702464FF0FF3082
:103C9000704701464FF0FF307047F8B505460F46B4
:103CA0001446002C70D0B5F5FF5F01DDFF2605E05E
:103CB000202D01DA012601E0C5F3471607B90127D7
:103CC000282C02DD4FF0FF30F8BDE648407D28BBD0
:103CD000E44890F8240038B10020FFF723FE0121CA
:103CE000E04880F8201003E00021DE4880F8201032
:103CF000DC481630FFF751F8DA481830FFF76DF856
:103D0000D8481A30FFF78DF8D6481C30FFF7AEF8C8
:103D1000D448817A81771F30FFF702F90020FEF73F
:103D20005FF90020FEF788FC00208DF80000CD4AE6
:103D300012689178CB4A526810786B46012201F0E4
:103D4000C8FA10B14FF0FF30BEE740208DF80000F8
:103D5000C44A1268D17BC34A526810786B4601226C
:103D600001F0B7FA00B165E08DF800608DF80170E0
:103D7000BC4A1268117ABB4A526810786B4602221C
:103D800001F0A7FA08B155E047E0052001F07BFCFF
:103D9000B448407A072101EBC000C0B28DF80000A2
:103DA000B04A1268D179AF4A526810786B46012246
:103DB00001F08FFA00B13DE020208DF80000012CC9
:103DC00003D100208DF801000EE0052C03DC01205A
:103DD0008DF8010008E0142C03DC02208DF80100AE
:103DE00002E003208DF801009DF80100072101EB9E
:103DF0008010C0B28DF801009A4A1268917C994AED
:103E0000526810786B46022201F063FA00B111E0AB
:103E1000012194484175002056E7924A163200214C
:103E200003E0505C00B105E0491C0C29F9D34FF0C8
:103E3000FF3049E7FF208B490872FF218948417212
:103E4000C1724FF6FF71C181FF218172017401219E
:103E500001730146887FFEF786F98249C88AFEF71A
:103E6000E6FC8049087EFEF7A0FC7E49488BFEF701
:103E7000A4FB7C49888BFEF74CFC7A49C87FFEF78F
:103E800067FB784890F8200010B10120FFF74AFD49
:103E9000002174484175002016E770B588B002A96A
:103EA00005A8FFF784FD0446032C3ED101A8FEF7C8
:103EB000F3FF059807F088FC0646019907F0E4FC3B
:103EC000054607F045FC0590069807F07DFC064680
:103ED000019907F0D9FC054607F03AFC06900798CF
:103EE00007F072FC0646019907F0CEFC054607F084
:103EF0002FFC079005A800F054FA6846FEF7E9FF8A
:103F0000BDF80010029848430290BDF800100398D5
:103F100048430390BDF8001004984843049002A859
:103F200000F0D2FA002008B070BD0120FBE7014686
:103F300091F90020002A01DD00201EE091F9002007
:103F4000002A01DA042018E091F90120002A01DD9D
:103F5000012012E091F90120002A01DA05200CE08D
:103F600091F90220002A01DD022006E091F90220E9
:103F7000002A01DA062000E00720704710B5044649
:103F80002046FFF7D4FF0346E01CFFF7D0FF43EACB
:103F9000C00083B2A01DFFF7CAFF43EA801083B2BE
:103FA000184610BD70B5002401F0D1F9FEF781FC70
:103FB000002840D17820FEF7D6F8C4B20CB1012019
:103FC00070BD7820FEF7C4FAC4B20CB10220F7E746
:103FD0006420FEF79EFBC4B20CB10320F0E700F0B2
:103FE00045F9C4B20CB10420EAE71F48FFF7C6FF49
:103FF000054600F045F9C4B20CB10520E0E740F2F7
:10400000731000F07EFDC4B20CB10620D8E7642026
:1040100000F0F0FAC4B20CB10720D1E7FFF73DFF82
:1040200004460CB10820CBE70120FFF77BFCC4B2AB
:104030001CB10920C4E70A20C2E70020C0E72DE92F
:10404000F04F99B004460D4616464FF07E574FF09C
:1040500000084FF000094FF0000A12A813A918AB8E
:104060000EAA03E05800002084000020CDE90010D3
:1040700014A916A800F0A4FE18B1012019B0BDE8DB
:10408000F08FBDF84C0000F4807000287ED00E98B0
:1040900007F09AFB83464FF09D4107F063FA07460D
:1040A0000F9807F091FB83464FF09D4107F05AFAB5
:1040B0008046109807F088FB83464FF09D4107F03B
:1040C00051FA8146119807F07FFB83464FF09D41DE
:1040D00007F048FA824639464FF0804007F0D4FB9B
:1040E0004946059007F0D0FB414607904FF040400D
:1040F00007F0CAFB5146059007F0C6FB06900799EA
:1041000007F0C2F9834607F093F9CDE9080106F0FC
:10411000F5F84FF06632544BCDE90A0106F0AEFED9
:10412000CDE90C0106F018FC206049464FF08040B4
:1041300007F0AAFB4946029007F0A6FB414604900F
:104140004FF0404007F0A0FB4146029007F09CFB77
:104150000390049907F096FC83464FF07E5107F0D8
:1041600093F9059007F064F9CDE9080139464FF05D
:10417000804007F089FB4146039007F085FB4946E4
:1041800004904FF0804007F07FFB00E068E051466C
:10419000039007F079FB8346049907F075F90590C1
:1041A00007F046F9CDE90601DDE9082306F0EEFA4D
:1041B0004FF066322C4BCDE90A0106F05FFECDE9E7
:1041C0000C0106F0C9FB28605146504607F05CFB25
:1041D00049460490484607F057FB41460390404645
:1041E00007F052FB39460190384607F04DFB00902E
:1041F000019907F049F90290039907F043FC8346BF
:10420000049907F03FFC059007F012F9CDE9080189
:104210005146384607F038FB49460490404607F0BF
:1042200033FB0390049907F02FF94FF0804105907C
:1042300007F02AFB834607F0FBF8CDE90601DDE92C
:10424000082306F0A3FA4FF06632074BCDE90A01C6
:1042500006F014FECDE90C0106F07EFB306001E0B3
:1042600002200BE7002009E766A64C4010B5C823E2
:104270004FF48062F74940F6F630FFF79DFC10BD21
:1042800010B586B00446F4A000680390F3A000685F
:104290000290F3A000680190F2A00068009004F082
:1042A000030003A9085C8DF8140003A8C4F3C1013E
:1042B000405C8DF8150003A8C4F38111405C8DF8B3
:1042C000160004F0030002A9085C8DF8100002A893
:1042D000C4F3C101405C8DF8110002A8C4F3811140
:1042E000405C8DF8120005AA032140F22640FFF73A
:1042F000E9FB18B14FF0FF3006B010BD04AA03214E
:1043000040F22A40FFF7DEFB10B14FF0FF30F3E739
:10431000019805900098049004F0040058B19DF8AD
:10432000140040F001008DF814009DF8100040F0DA
:1043300001008DF8100004F0200058B19DF8150020
:1043400040F001008DF815009DF8110040F00100CB
:104350008DF8110004F4807058B19DF8160040F0FB
:1043600001008DF816009DF8120040F001008DF854
:10437000120005AA03214FF48860FFF7A3FB10B1D8
:104380004FF0FF30B8E704AA032140F23140FFF7B5
:1043900099FB10B14FF0FF30AEE7B3480481002025
:1043A000AAE71FB50446B048007A00F0030054F8AD
:1043B00020000190AC48007A00F0040010B1019890
:1043C00040420190A848007AC0F3C10054F8200090
:1043D0000290A548007A00F0200010B102984042F7
:1043E0000290A148007AC0F3811054F82000039095
:1043F0009D48008900F4807010B1039840420390FA
:104400009A49019880FB0101800F40EA81000190E8
:104410009649029880FB0110820042EA9170029056
:104420009249039880FB0110820042EA9170039048
:104430000198000E8DF800000198000C8DF8010025
:104440000198000A8DF802000198C0B28DF80300AF
:104450006A4604214FF47470FFF734FB18B14FF033
:10446000FF3004B010BD0298000E8DF800000298D5
:10447000000C8DF801000298000A8DF802000298E5
:10448000C0B28DF803006A4604214FF47570FFF73F
:1044900019FB10B14FF0FF30E3E70398000E8DF8E1
:1044A00000000398000C8DF801000398000A8DF8B5
:1044B00002000398C0B28DF803006A4604214FF44D
:1044C0007670FFF7FFFACCE770B588B0064601A812
:1044D000FEF7FFFCBDF804000021C90341EA504586
:1044E000C4036148007A00F0030056F820000590EC
:1044F0005D48007A00F0040010B105984042059034
:104500005948007AC0F3C10056F82000069056487A
:10451000007A00F0200010B1069840420690524800
:10452000007AC0F3811056F8200007904E480089A9
:1045300000F4807010B10798404207900598C117A9
:10454000A0FB042301FB043100FB0510810041EABC
:10455000927005900698C117A0FB042301FB04315B
:1045600000FB0510810041EA927006900798C11780
:10457000A0FB042301FB043100FB0510810041EA8C
:10458000927007900598000E8DF808000598000CB1
:104590008DF809000598000A8DF80A000598C0B248
:1045A0008DF80B000698000E8DF80C000698000C94
:1045B0008DF80D000698000A8DF80E000698C0B21E
:1045C0008DF80F000798000E8DF810000798000C6A
:1045D0008DF811000798000A8DF812000798C0B2F4
:1045E0008DF8130002AA0C214FF42570FFF76AFA28
:1045F00008B070BD30B585B004461DA207CA02AB35
:1046000007C3C82C03DD4FF0FF3005B030BDC82014
:1046100090FBF4F0401E85B2280A8DF80000E8B245
:104620008DF801006A46022140F21620FFF74AFA8F
:1046300010B14FF0FF30E8E702AA0C2140F6C1208C
:10464000FFF740FA10B14FF0FF30DEE706488481F3
:104650000020DAE75CD300084CCD6C000CC92C00BC
:104660003656760026466600900F002009E3CA02FF
:10467000FEF2ABC4AAF1DFDFBBAFDFDF0146FC48CF
:1046800080890880002070472DE9FC4706460F46C8
:1046900006F0070010B1B7F5C86F03DD4FF0FF302B
:1046A000BDE8FC87384607F0A7F88146F14906F0D7
:1046B00059FF80466846FEF790FB9DF800000228EF
:1046C00006D0042816D0082826D0102848D135E076
:1046D0004FF08D41404607F0D7F8814607F054F877
:1046E00084B2E549404607F0CFF8814607F04CF820
:1046F00085B238E04FF08C41404607F0C5F881465E
:1047000007F042F884B2DD49404607F0BDF8814623
:1047100007F03AF885B226E04FF08B41404607F0AB
:10472000B3F8814607F030F884B2D549404607F027
:10473000ABF8814607F028F885B214E04FF08A41C3
:10474000404607F0A1F8814607F01EF884B2CD4933
:10475000404607F099F8814607F016F885B202E066
:104760004FF0FF309CE700BF20128DF80400E0B24C
:104770008DF8050028128DF80600E8B28DF80700C4
:1047800006F00100A0B101AA02214FF4EA70FFF780
:1047900099F910B14FF0FF3082E70DF106020221C6
:1047A0004FF49270FFF78EF910B14FF0FF3077E7BA
:1047B00006F00200A0B101AA02214FF4EC70FFF74D
:1047C00081F910B14FF0FF306AE70DF106020221C6
:1047D0004FF49470FFF776F910B14FF0FF305FE7B8
:1047E00006F00400A0B101AA02214FF4EE70FFF719
:1047F00069F910B14FF0FF3052E70DF106020221C6
:104800004FF49670FFF75EF910B14FF0FF3047E7B5
:10481000002045E738B504460020009004F0010070
:1048200020B19DF8000040F03000009004F002003C
:1048300020B19DF8000040F00C00009004F004004E
:1048400020B19DF8000040F0030000906A4601216D
:104850004FF4A470FFF736F938BD38B50446012C83
:1048600001DA012402E0042C00DD0424601EC0B241
:1048700000906A46012140F24F10FFF723F938BD3E
:1048800038B50446052094FBF0F085B228128DF867
:104890000000E8B28DF801006A4602214FF4EF7083
:1048A000FFF710F938BD38B50446052094FBF0F049
:1048B00085B228128DF80000E8B28DF801006A4632
:1048C00002214FF4ED70FFF7FDF838BDF8B505464D
:1048D0000E464FF47A7095FBF0F000FB06F4200EC4
:1048E0008DF80000200C8DF80100200A8DF80200E0
:1048F000E0B28DF803006A4604214FF4AE70FFF772
:10490000E1F8F8BD38B50446052094FBF0F084B218
:1049100020128DF80000E0B28DF801006A460221F5
:104920004FF4AD70FFF7CEF838BD38B5044605201A
:1049300094FBF0F084B220128DF80000E0B28DF804
:1049400001006A4602214FF4AC70FFF7BBF838BD96
:1049500038B5044614B94FF0FF3038BD6A4604211B
:104960004FF45870FFF7EBF810B14FF0FF30F4E759
:104970009DF8000000069DF8011040EA01409DF8F6
:10498000021040EA01209DF8031008432060002037
:10499000E3E738B50446200E8DF80000200C8DF8B2
:1049A0000100200A8DF80200E0B28DF803006A468B
:1049B00004214FF45870FFF785F838BD38B5044628
:1049C00014B94FF0FF3038BD6A4604214FF47170BE
:1049D000FFF7B5F810B14FF0FF30F4E79DF8000095
:1049E00000069DF8011040EA01409DF8021040EADF
:1049F00001209DF80310084300EB80008000206038
:104A00000020E0E738B504461420B4FBF0F4200E93
:104A10008DF80000200C8DF80100200A8DF80200AE
:104A2000E0B28DF803006A4604214FF47170FFF77D
:104A300049F838BD38B5044664B120208DF800002F
:104A400028208DF8010030208DF8020038208DF8E4
:104A5000030004E0A3220421684605F036FA6A4602
:104A6000042140F69E20FFF72DF8FDF785FC38BDA8
:104A7000900F002000004843000040460000C04561
:104A8000000040450000C04438B5044664B1C02071
:104A90008DF80000C2208DF80100C4208DF80200BE
:104AA000C6208DF8030004E08B220421684605F03F
:104AB0000CFA6A46042140F69820FFF703F8FDF748
:104AC0005BFC38BD3EB504466CB1FDA1D1E90020C8
:104AD0008968CDE9002002916A4609214FF4976068
:104AE000FEF7F0FF3EBDF9A2D2E900109268CDE9D1
:104AF000010200916A4609214FF49760FEF7E2FF38
:104B0000F0E73EB5044602208DF80000CA208DF87B
:104B10000100E3208DF8020009208DF803006A46A9
:104B200004216820FEF7CEFFA3208DF8000004F0DA
:104B3000400048B1C0208DF80100C8208DF8020067
:104B4000C2208DF8030006E0A3208DF801008DF847
:104B500002008DF8030004F4C07048B1C4208DF841
:104B60000400CC208DF80500C6208DF8060006E074
:104B7000A3208DF804008DF805008DF80600A32011
:104B80008DF807008DF808008DF809006A460A21A3
:104B900040F6A720FEF796FF04F0030018B120208E
:104BA0008DF8000002E0D8208DF800006A4601214F
:104BB00040F6B620FEF786FF04F0200018B1012071
:104BC000FFF780FF02E00020FFF77CFF04F4C070D5
:104BD00008B304F4807060B1B2208DF800008B201F
:104BE0008DF80100B6208DF802009B208DF803009F
:104BF0000BE0B0208DF8000080208DF80100B4207B
:104C00008DF8020090208DF803006A46042140F6DA
:104C1000A220FEF757FF04F0010020B3F8208DF822
:104C200000006A4601214FF40B60FEF74BFFFA21AA
:104C30000720FFF729FD0720FFF7ECFD0120FFF714
:104C40000CFE6420FFF71CFE4FF4FA70FFF72BFEFA
:104C5000C821A148FFF73AFE2820FFF753FE0A209B
:104C6000FFF763FE08E0D8208DF800006A460121B6
:104C70004FF40B60FEF726FF04F0020018B1D920B4
:104C80008DF8000002E0D8208DF800006A4601216E
:104C900040F23D70FEF716FF04F0040018B1012049
:104CA000FFF7F2FE02E00020FFF7EEFE04F0100036
:104CB00018B10120FFF7BEFE02E00020FFF7BAFEA8
:104CC00044F0080085494881FDF756FB00208349E0
:104CD000887304F0400018B10846807B801D8873FB
:104CE00004F4C07020B17D48807B801D7B498873AF
:104CF00004F0140020B17948807B10307749887324
:104D000004F0030020B17548807B001D734988734F
:104D100000203EBD01467148408908800020704750
:104D20002DE9F0410446E07800F0C006E07800F09C
:104D30003F05607800F0010098B1EF102846E917B0
:104D400005EB5171C910A5EBC101491C01F0FF0829
:104D50006248006820B16148414602683846904781
:104D600000BF607800F0080030B15C48406818B1BE
:104D7000B0115A4A516888470020BDE8F08110B54B
:104D800086B0044656A207CA03AB07C357A207CA98
:104D90008DE80700012C09D0022C0ED103AA0B21AB
:104DA00040F68220FEF78EFE06B010BD6A460B214B
:104DB00040F68220FEF786FEF6E74FF0FF30F3E77D
:104DC0002DE9F04F8DB00746884615469946DDE936
:104DD000166B0024002030804049887B5A4605A984
:104DE000FEF7D3F918B1601E0DB0BDE8F08F3B4857
:104DF000807A00F01400002861D09DF814000006AD
:104E00009DF8151040EA01409DF8161040EA012077
:104E10009DF81710084328609DF8180000069DF8BB
:104E2000191040EA01409DF81A1040EA01209DF84F
:104E30001B10084368609DF81C0000069DF81D10BB
:104E400040EA01409DF81E1040EA01209DF81F1025
:104E50000843A8609DF8200000069DF8211040EA54
:104E600001409DF8221040EA01209DF823100843DC
:104E7000E86004F11000C4B228680014019068686A
:104E800000140290A86800140390E86800140490CD
:104E900001984043029901FB0100039901FB0100C5
:104EA000049901FB010ABAF1706F02DBBAF1885F65
:104EB00022DDFDF761FA00203080401E94E721E0FA
:104EC000B8AAB38DB4980D355D000000B8AAAAAA9F
:104ED000B088C3C5C700000009E3CA02900F0020D4
:104EE000D8B1B9F38BA391B609B4D900DAB1B9F34B
:104EF0008BA391B6DAB4DA00B6F9000040F4807002
:104F0000308000BF3448807A00F0400020B305A90B
:104F1000601C085C095D40EA012000B2A8F80000AE
:104F200005A9E01C095C05AAA01C105C41EA002050
:104F300000B2A8F8020005A9601D095C201D105CE4
:104F400041EA002000B2A8F80400A01DC4B2B6F9DE
:104F5000000040F0080030801F48408900F4C07015
:104F600008B305A9601C085C095D40EA012000B295
:104F7000388005A9E01C095C05AAA01C105C41EA68
:104F8000002000B2788005A9601D095C201D105C1E
:104F900041EA002000B2B880A01DC4B2B6F90000FA
:104FA00040F0700030800C48807A00F0030018B1A7
:104FB00005A90819FFF7B4FE4846FDF74AFD002091
:104FC00012E701460448016000207047014602488C
:104FD0004160002070470000900F002070B505462A
:104FE0000C4600F0CDF9D02000F07EFA00F009FA6E
:104FF00018B100F0E5F9012070BD284600F074FA00
:1050000000F0FFF9204600F06FFA00F0FAF918B14D
:1050100000F0D6F90120EFE700F0D2F90020EBE72D
:1050200070B504460025BC2C01DB012510E0622C84
:1050300001DB02250CE02A2C01DB032508E0142CFF
:1050400001DB042504E00A2C01DB052500E0062530
:1050500029461A20FFF7C2FF70BD70B50446B4F5AB
:105060007A7F01DD4FF47A74042C00DA04244FF4C3
:105070007A7090FBF4F0401EC5B229461920FFF764
:10508000ADFF0546264604EBD671C1F34F00FFF78E
:10509000C7FF70BD70B5044600F072F9D02000F073
:1050A00023FA00F0AEF9204600F01EFA00F0A9F94C
:1050B00000F066F9D12000F017FA00F0A2F9002004
:1050C00000F03DFA054600F07BF9284670BD10B5AA
:1050D0000446E006010E1C20FFF780FF10BD10B54E
:1050E0000446E006010E1B20FFF778FF10BD10B547
:1050F00000F02DF980216B20FFF770FF642000F095
:10510000C2FA00216B20FFF769FF0320FFF7E7FFDA
:105110000020FFF7DCFF3220FFF79FFF002138203F
:10512000FFF75CFF00216A20FFF758FF00212320D2
:10513000FFF754FF80213720FFF750FF7520FFF75E
:10514000A9FF0446682C0BD101216B20FFF746FF15
:1051500000216C20FFF742FF3220FFF77EFF01E0C5
:10516000012010BD0020FCE72DE9F04106460F4666
:1051700014461D4600F004F9002141EA4601C8B278
:1051800000F0B2F900F03DF920B100F019F901206A
:10519000BDE8F081384600F0A7F900F032F900F0E0
:1051A000EFF8012101EB4601C8B200F09DF900F0D3
:1051B00028F90DE0012C04D1002000F0C0F928707E
:1051C00003E0012000F0BBF92870601EC4B26D1C22
:1051D000002CEFD100F0F4F80020D9E72DE9F84FCA
:1051E0006B46022241216820FFF7BEFF9DF80100B7
:1051F0009DF8001040EA01200FFA80FA504605F0B1
:1052000012FE804600224B4B05F088FC06464A4AB7
:105210004A4B05F0D3FB044605F09EFB8346484904
:10522000584606F031FB044606F092FA00B2BDE89B
:10523000F88F2DE9FC4104460D4616466B460622C2
:1052400043216820FFF790FF0746BFB99DF8010092
:105250009DF8001040EA012000B220809DF8030074
:105260009DF8021040EA012000B228809DF8050058
:105270009DF8041040EA012000B230803846BDE8B5
:10528000FC812DE9FC4104460D4616466B4606227C
:105290003B216820FFF768FF0746BFB99DF8010072
:1052A0009DF8001040EA012000B220809DF8030024
:1052B0009DF8021040EA012000B228809DF8050008
:1052C0009DF8041040EA012000B230803846BDE865
:1052D000FC812DE9F04105460E461746984600F040
:1052E0004FF8002141EA4501C8B200F0FDF800F096
:1052F00088F820B100F064F80120BDE8F081304664
:1053000000F0F2F800F07DF800240CE018F804003A
:1053100000F0EAF800F075F818B100F051F801203B
:10532000EBE7601CC4B2BC42F0DB00F049F800209F
:10533000E3E7000000407540A4703D0AD7434240B7
:105340000000C84210B5022000F072F910BD08B587
:105350000121082003F014F94FF44060ADF800007B
:1053600010208DF8030003208DF8020069468D4857
:1053700002F04AFE4FF440618A4802F0F2FE08BD96
:1053800010B58848001D006820F470408549091D4B
:1053900008600846006840F44050086001208249D7
:1053A00008608249C1F8A801FFF7CCFF00207E49C0
:1053B0000860FFF7C7FF00207C49C1F8A80110BDB5
:1053C00010B57848001D006820F470407549091D2B
:1053D00008600846006840F44050086000207249A8
:1053E000091F08607149C1F8AC01FFF7ABFF01204C
:1053F0006D49091F08606D49C1F8AC01FFF7A2FFB4
:1054000010BD10B500246748001D006820F47040EE
:105410006449091D08600846006840F400400860BF
:10542000012061490860FFF78DFF01205F49C1F845
:10543000A801FFF787FF07E0601CC4B2FA2C03DD68
:10544000FFF7BEFF012010BD5748803800680028D4
:10545000F2D15549091F086000BFF4E710B50020DC
:105460005149091F08604F48001D006820F4704032
:105470004C49091D08600846006840F44050086027
:1054800000204A49C1F8AC01FFF75CFF0120464902
:10549000091F0860FFF756FF00204449C1F8A80122
:1054A00010BD10B500204049091F08603D48001D8F
:1054B000006820F470403B49091D086008460068F8
:1054C00040F44050086001203849C1F8AC01FFF7B2
:1054D00039FF01203449091F0860FFF733FF00201E
:1054E0003249C1F8A80110BD70B504462D48001D11
:1054F000006820F470402B49091D086008460068C8
:1055000040F44050086000202749091F086000252A
:1055100012E0E009244908606006040E01202349D6
:10552000C1F8A801FFF70EFF00201F49091F0860FE
:10553000FFF708FF681CC5B2082DEADB70BD70B527
:10554000054600241748001D006820F470401549E6
:10555000091D08600846006840F400400860002605
:1055600015E000201049091F0860FFF7EBFE01203D
:105570000E49C1F8A8016006040E0B488038006887
:1055800008B1601CC4B2FFF7DDFE701CC6B2082E65
:10559000E7DB15B9FFF785FF01E0FFF75FFF204666
:1055A00070BD0000000C0140AC812142008021420E
:1055B00010B500F09DFB10BD10B500F0DEFB10BD76
:1055C00010B50446204602F0EBFA10BD10B53E4877
:1055D0000078012805D100F038FB00F07CFC00F0D9
:1055E0004FFB10BD10B56FF0040002F000FC37480F
:1055F00000683749B0FBF1F036490870334800685D
:105600003349B0FBF1F441F288304443052032497C
:1056100008804FF0E020006940F002004FF0E021E8
:10562000086108464461006940F00100086110BD4E
:105630002DE9F047074600264FF0E020D0F81490FF
:105640002448007807FB00F800BFFFF7B1FF4FF0D8
:10565000E020856911E04FF0E0208469AC420CD075
:10566000AC4202D2281B064403E0A9EB0400284404
:1056700006442546464500D300E0ECE700BFFFF7AF
:105680009BFFBDE8F08770B504460F480078A0B1D5
:105690001248007888B910480088844206DB0E481A
:1056A000008894FBF0F52846FFF78AFF0A48008837
:1056B00094FBF0F100FB114084B24FF47A7104FBCB
:1056C00001F0FFF7B5FF70BDC20000203C000020D4
:1056D00000127A008E00002090000020B50000200B
:1056E00000BF704700BF4C4A128802F04002002AF7
:1056F000F9D0C2B2484B1B1D1A80704710B586B056
:105700000446012144F2040002F03AFF4FF4007015
:10571000ADF8140003208DF8160018208DF817003E
:1057200005A93E4802F070FC4FF48060ADF814000B
:1057300004208DF8170005A9384802F065FC2520E3
:105740008DF8000003208DF801008DF80200012083
:105750008DF80300684602F000FB01940020ADF8CC
:105760000800ADF80A00ADF80C00ADF810000C20F0
:10577000ADF80E0001A9284804F03DF8012240F2DE
:105780002551254804F0CFF80121234804F0BFF843
:1057900006B010BD10B500F058FA40F225511E4871
:1057A00004F0A6F910B31C4804F022F9C4B21C4856
:1057B000008800F40040C8B91948008800F480400F
:1057C00060B10A2C03D000201549088020E014485D
:1057D000008840F400401249088019E00D2C06D1E1
:1057E0000F48008840F480400D49088010E00C48C4
:1057F0000088C0F30D000B490C5409480088401C78
:105800000749088008460088C72801DD0020088075
:1058100000F036FA10BD00000038014000080140D9
:1058200098000020A00F0020094880470948004741
:10583000FEE7FEE7FEE7FEE7FEE7FEE7FEE7FEE740
:10584000FEE7FEE704480549054A064B704700009D
:105850006F080008ED000008481B002048210020C8
:10586000481D0020481D0020EFF3108072B67047DD
:1058700080F310887047204C204D25604FF00004C5
:1058800084F309881E4C4FF0010525701D4C4FF024
:105890008055256062B6FEE730B41A4C4FF0805553
:1058A000256030BC704730B4164C4FF080552560F1
:1058B00030BC704700BF72B6EFF3098028B12038C2
:1058C00080E8F00F10490968086000B50F4880476C
:1058D0005DF804EB0E480F490A7802700A480E4939
:1058E0000A680260106890E8F00F203080F30988A1
:1058F0004EF0040E62B6704720ED00E00000FFFF9E
:10590000C200002004ED00E0C8000020C3590008D8
:10591000B7000020B8000020D0000020704770477A
:10592000704770477047704770B5044610464FF097
:1059300080750560051F28462C606FF00106051F65
:1059400028462E604FF01236051F28462E604FF075
:105950000336051F28462E604FF00236051F2846E5
:105960002E607610051F28462E60051F28462960E8
:105970004FF01136051F28462E604FF01036051FD8
:1059800028462E604FF00936051F28462E604FF03E
:105990000836051F28462E604FF00736051F28469B
:1059A0002E604FF00636051F28462E604FF0053654
:1059B000051F28462E604FF00436051F28462E602E
:1059C00070BD704770477047704700007CB5002578
:1059D00014E06946284601F0D9FF064666B9F74843
:1059E00050F8254044B1012C06D0D4E9020100EB67
:1059F000810060640198A064681CC5B23F2DE8D99D
:105A00007CBD002400BF02E0282002F0C9F8EC4869
:105A100000780028F8D0EB4800686421B0FBF1F072
:105A2000E84908600846006828B90020E64908707F
:105A3000FF2001F0EDFF00BFFFF716FF0446E3482B
:105A40000068E34908600020E04908602046FFF74D
:105A50000FFFDF480068DB490968B0FBF1F0C0F1D7
:105A60006400D9490870FFF75EFFFFF7AFFF14200D
:105A700002F096F8E0E700B587B00320002180220D
:105A8000D44BCDE90132CDE903104FF6FE703E2331
:105A9000D14A0090AFF2950001F091FD06AACFA186
:105AA0003E2001F0F5FE07B000BD002400BF00BF9E
:105AB000FFF7DAFE0446C5480068401CC349086089
:105AC0002046FFF7D5FEFFF72DFFF1E700B587B0C1
:105AD000032000218022C54BCDE90132CDE903101E
